:020000040800F2
:10000000B004002001010008D70E0008ED0D000823
:10001000D50E00086D0100085F0F00080000000009
:10002000000000000000000000000000F90E0008C1
:100030007D01000800000000D90E0008FB0E00083A
:100040001B0100081B0100081B0100081B01000820
:100050001B0100081B0100081B0100081B01000810
:100060001B0100081B0100081B0100081B01000800
:100070001B010008710100081B0100081B0100089A
:100080001B0100081B0100081B0100081B010008E0
:100090001B0100081B0100081B0100081B010008D0
:1000A0001B0100081B0100081B0100081B010008C0
:1000B0001B0100081B0100081B0100081B010008B0
:1000C0001B0100081B0100081B010008DD0E0008D1
:1000D0001B0100081B0100081B0100081B01000890
:1000E0001B0100081B0100081B010008DFF80CD0F1
:1000F00000F02AF8004800479F0F0008B0040020D5
:100100000648804706480047FEE7FEE7FEE7FEE7B1
:10011000FEE7FEE7FEE7FEE7FEE7FEE75D0F00080D
:10012000ED000008D2B201E000F8012B491EFBD21D
:1001300070470022F6E710B513460A4604461946F2
:10014000FFF7F0FF204610BD064C074D06E0E068C3
:1001500040F0010394E8070098471034AC42F6D30E
:10016000FFF7C8FFD80F0008F80F0008FEE70000EF
:10017000014800F053B8000068000020704772B6D4
:10018000FEE7000010B590F821100024022903D0EA
:100190000421816301243DE001680A6822F00E0217
:1001A0000A6001680A6822F001020A601A4A0168BE
:1001B000914201D1012121E0174A1432914201D12B
:1001C00010211BE0144A2832914201D1891515E013
:1001D000114A3C32914201D189140FE00E4A50324B
:1001E000914202D14FF4803108E00B4A64329142CF
:1001F00002D14FF4801101E04FF08071064A083AB5
:100200005160012180F82110002180F82010416BFD
:1002100001B18847204610BD080002402DE9F05F7B
:10022000C16B0C6801680B68D0F840C0042202FA68
:100230000CF2494DDFF824A1494E4A4FDFF828B1AE
:10024000DFF828E122422CD05A072AD50A68920604
:1002500003D40A6822F004020A600168A94201D1AD
:10026000042219E0514501D1402215E0B14202D1EA
:100270004FF4806210E0B94202D14FF480420BE0AB
:10028000594502D14FF4802206E0714502D14FF466
:10029000800201E04FF080622F4908394A60C16A4C
:1002A0003BE04FF0020808FA0CF818EA040F4FF090
:1002B00000094FF0010235D05FEA837832D50B6830
:1002C0009B0605D40B6823F00A030B6080F82120FD
:1002D0000168A94201D1022219E0514501D1202231
:1002E00015E0B14202D14FF4007210E0B94202D1E0
:1002F0004FF400520BE0594502D14FF4003206E0B2
:10030000714502D14FF4001201E04FF00072124922
:1003100008394A6080F82090816A00291AD0BDE827
:10032000F05F0847082505FA0CF5254212D01B0797
:1003300010D50B6823F00E030B6090F84010C36BD0
:1003400002FA01F15960826380F8212080F8209040
:10035000016BE2E7BDE8F09F080002401C0002408C
:100360003000024044000240580002406C0002404D
:1003700030B528B308C8134914221944B1FBF2F16F
:100380008900C16310498163022141771A6843F6ED
:10039000F0718A43D0E900142143D0E902452C438F
:1003A0002143046921434469214384692143114362
:1003B000196000214163012242770177084630BD70
:1003C000012030BDF8FFFDBF000002402DE9F84FCD
:1003D000DFF8B8910024A9F1040B23460F2709F197
:1003E000040AABF1040EC9E00125A5402A40AA4247
:1003F0007DD1674ED1F804C0ACEB0608B44532D0CD
:1004000014DCBCF1030F3AD009DCBCF1000F2AD098
:10041000BCF1010F1CD0BCF1020F31D11DE0BCF1C9
:10042000110F17D0BCF1120F2AD119E0B8F5881FAF
:1004300019D006DCB8F5803F15D0B8F5801F1FD164
:1004400011E0B8F5001F0ED0B8F5041F18D10AE06E
:10045000CB6815E0CB681B1D12E0CB6808330FE0BA
:10046000CB680C330CE08B682BB1012B4FF00803E9
:1004700003D0456104E0042302E0056100E00023AD
:10048000FF2A01D8064601E000F104064FEA840580
:1004900001D9A5F12005D6F8008007FA05FC28EA65
:1004A0000C0803FA05F548EA0508C6F800804D680F
:1004B000ED0062D5374DAE6946F00106AE61AD691B
:1004C00024F0030605F001050095334D06EB050CFD
:1004D000DCF80850A607360F07FA06F825EA0805E3
:1004E000DFF8B880404503D14FF0000817E044E042
:1004F000DFF8AC80404502D14FF001080FE0DFF893
:10050000A480404502D14FF0020808E0DFF898804F
:10051000404502D14FF0030801E04FF0040808FA0B
:1005200006F848EA0508CCF808804D68D9F800605C
:10053000ED024D4601D5164300E096432E604D680E
:10054000DAF80060AD02554601D5164300E0964347
:100550002E604D68DBF80060AD035D4601D51643A3
:1005600000E096432E604D68DEF80060ED037546AE
:1005700001D5164300E096432E60641C0D682A46A0
:10058000E5407FF431AFBDE8F88F0000080401407A
:10059000000011100010024000000140000801405E
:1005A000000C014000100140001401400AB101613B
:1005B00070470904FBE700000148806870470000AD
:1005C0000000002002488168027811448160704771
:1005D00000000020074810B5016841F010010160DB
:1005E000032000F075F80F2000F006F800F024F862
:1005F000002010BD0020024070B50D4D04464FF4A0
:100600007A712878B1FBF0F00A490968B1FBF0F083
:1006100000F0D8FB48B9102C07D200222146501E0A
:1006200000F036F800206C6070BD012070BD000045
:10063000000000200C0000200C4808B5816941F042
:1006400001018161816901F001010091C16941F0FD
:100650008051C161C06900F0805000900448416839
:1006600021F0E06141F00071416008BD00100240DE
:1006700000000140002809DB00F01F020121914029
:100680004009800000F1E020C0F800117047000030
:10069000F0B40E4B1B680C46C3F30223C3F10705ED
:1006A000042D00D90425191D072901D2002300E0DB
:1006B000DB1E012606FA05F1491E214099409E40A5
:1006C000761E16403143F0BC00F04ABC0CED00E051
:1006D000064900F0070208684FF6FF03184040EA99
:1006E0000220034A10430860704700000CED00E050
:1006F0000000FA052DE9F0470F46050061D0434E92
:10070000306800F00700B84209D2306820F00700D6
:1007100038433060306800F00700B84251D1286893
:100720003B4C810712D5400703D5606840F4E06078
:1007300060602878000703D5606840F4605060600E
:100740006068A96820F0F000084360602878C0075E
:1007500028D06868012810D02168022810D08907A5
:1007600000292EDA616821F0030101436160FFF77F
:1007700023FF804641F288390DE021688903EFE7C5
:100780008901EDE7FFF718FFA0EB0801494502D901
:100790000320BDE8F0876068696800F00C00B0EBEA
:1007A000810FEFD1306800F00700B8420BD93068F4
:1007B00020F0070038433060306800F00700B8428E
:1007C00001D00120E5E72878400705D56068E96891
:1007D00020F4E060084360602878000706D5606870
:1007E000296920F4605040EAC100606000F018F808
:1007F0006168084AC1F30311515CC84006490860AA
:1008000006480068FFF7F8FE0020C2E7002002401B
:1008100000100240C60F00080C0000200400002059
:100820000E4A51680E4801F00C03042B11D0082B1E
:100830000FD10C48C1F38343C903C05C0AD551688A
:10084000084AC1F34041921E515C054A5043B0FB37
:10085000F1F070470449484370470000001002401F
:1008600000127A00B60F000800093D002DE9F84F8C
:10087000040070D02078C04DC00749D06868C0F32C
:100880008100012807D06868C0F38100022809D1DF
:100890006868C00306D52868800339D560680028D9
:1008A000E7D035E06068B0F5803F0BD010B1B0F50F
:1008B000A02F11D0286820F480302860286820F408
:1008C000802002E0286840F480302860606890B1A1
:1008D000FFF772FE06460AE0286840F48020286090
:1008E000F0E700BFFFF768FE801B642873D8286814
:1008F0008003F7D50CE0FFF75FFE064605E000BF7A
:10090000FFF75AFE801B6428F0D828688003F7D4CC
:1009100020789A4E80074FF001094FF0000839D532
:10092000686810F00C0F07D06868C0F381000228D7
:1009300009D16868C00306D42868800714D52069E7
:10094000012808D110E02069B0B1C6F80090FFF787
:1009500033FE074605E00AE1FFF72EFEC01B022822
:10096000C4D828688007F7D52868616920F0F800A6
:1009700040EAC10028600DE0C6F80080FFF71CFEC9
:10098000074604E0FFF718FEC01B022823D828689A
:100990008007F7D4207800072CD57948A169D9B110
:1009A000C0F80090FFF708FE074604E0FFF704FEDA
:1009B000C01B02280FD8686A8007F7D571484FF42A
:1009C000FA510068B0FBF1F0009000BF0098411EA2
:1009D0000091FAD20EE080E0C0F80080FFF7ECFD55
:1009E000074604E0FFF7E8FDC01B022875D8686AD7
:1009F0008007F7D42078400760D5E8690027C00059
:100A000008D4E86940F08050E861E869012700F007
:100A1000805000905C480168C90513D40168834682
:100A200041F480710160FFF7C7FD824606E000BF18
:100A3000FFF7C2FDA0EB0A0064284ED8DBF80000E7
:100A4000C005F5D5E06801280AD008B1052813D003
:100A5000286A20F001002862286A20F0040002E0E1
:100A6000286A40F001002862E06841F2883B98B1B2
:100A7000FFF7A2FD82460BE0286A40F004002862DE
:100A8000EEE700BFFFF798FDA0EB0A0159455AD8E1
:100A9000286A8007F6D50CE0FFF78EFD824605E058
:100AA000FFF78AFDA0EB0A0159454CD8286A800758
:100AB000F6D41FB1E86920F08050E861E06988B39E
:100AC0006968C1F38101022944D00228C6F8608018
:100AD00004D0FFF771FD044638E034E0FFF76CFD09
:100AE000074604E0FFF768FDC01B02282BD82868E2
:100AF0008001F7D4206AB0F5803F05D16868A1680D
:100B000020F4003008436860D4E9080108436968AC
:100B100021F4741108436860C6F86090FFF74CFD3B
:100B2000044606E025E000BFFFF746FD001B022853
:100B300009D828688001F7D51BE000BFFFF73CFD0E
:100B4000001B022802D90320BDE8F88F2868800125
:100B5000F4D40EE00128F7D06868226A00F48031EE
:100B6000914204D1616A00F47010884201D00120E2
:100B7000EAE70020E8E700000010024000004242DF
:100B8000800442420C0000200070004070470000CA
:100B900038B50446006842688168C9434B0606D5EB
:100BA000CB0704D1D3435B0601D4216C05E08B074E
:100BB00008D4D3431B0605D4616C01B02046BDE8C0
:100BC000304008478B0601D54B0646D4D3439B06DD
:100BD00043D44B060AD494F85130032B3ED0636DB6
:100BE00043F004036365C36883680093890609D4EE
:100BF000616D41F00101616581680091016821F03A
:100C000040010160606D002827D02068416821F014
:100C1000E0014160012084F85100900722D0206853
:100C2000416821F003014160104DE06C40B1456323
:100C3000E06CFFF7A7FA18B1606D40F04000606506
:100C4000A06C002809D04563A06CFFF79BFA002830
:100C500003D0606D40F04000606538BDC1688068B9
:100C6000009038BD2046FFF791FF38BDE90E00081F
:100C700070B5040009D0606A002540B12561656146
:100C8000A56294F8510040B10CE0012070BD60688D
:100C9000B0F5827FF4D0E561F2E784F85050204649
:100CA00000F040F8022084F851002068016821F02B
:100CB00040010160A088218900F4827001F40441A0
:100CC0000843A18901F400610843217C01F002017D
:100CD0000843217D01F001010843218B01F40071DB
:100CE0000843217F01F03801084394F8201001F0F7
:100CF00080010843218D01F40051084321680860F8
:100D0000A069042101EA1040216848602068C16997
:100D100021F40061C1616565012084F85100002063
:100D200070BD000070B586B000250646009501959F
:100D30000295039500681E49884236D11D4988698D
:100D400040F480508861886900F48050049088697C
:100D500040F0040088618869694600F0040004904E
:100D6000A020009002200190032003901248FFF77A
:100D70002DFB134C114820601020C4E90105802090
:100D8000C4E903056561A5612046E561FFF7F0FA56
:100D900008B1FFF7F4F9B46400221146232066621B
:100DA000FFF776FC2320FFF765FC06B070BD00005E
:100DB00000300140001002400008014030000240B5
:100DC0006800002010B5401EB0F1807F01D30120E3
:100DD00010BD4FF0E02460610F21601700F0C0F8F3
:100DE0000020A06107202061002010BDFEE7000068
:100DF000094808B5416941F001014161406900229B
:100E000000F00100009011460D20FFF741FCBDE805
:100E100008400D20FFF72EBC0010024070B586B0D0
:100E2000002418480094019402940394816941F0CD
:100E300020018161816901F020010491816941F003
:100E400004018161816901F004010491816941F02B
:100E50000801816180690C4E00F0080040F60345EE
:100E60000490012229463046FFF7A0FB012000959F
:100E7000CDE901040320039069463046FFF7A6FA46
:100E800006B070BD00100240000C0140104810B5C3
:100E90000E4901604FF48271416000218160C160A0
:100EA0004FF400720161C0E905120822C0E9072170
:100EB000416281620A21C162FFF7DAFE002803D095
:100EC000BDE81040FFF75BB910BD000000300140E5
:100ED00010000020FEE7FEE7704700000148FFF722
:100EE00057BE00001000002010B5406A0021C187E5
:100EF000C186FFF74BFE10BD7047FFF763BB30B5EF
:100F00008FB028216846FFF714F914210AA8FFF7CB
:100F100010F901210804CDE90010002402940225F3
:100F20000491CDE907504FF4E01009906846FFF7AF
:100F30009DFC08B172B6FEE70F20CDE90A054FF41B
:100F40008060CDE90C4002210AA80E94FFF7D2FB85
:100F5000002801D072B6FEE70FB030BD7047FEE743
:100F60000907090E002804DB00F1E02080F80014D6
:100F7000704700F00F0000F1E02080F8141D70476A
:100F800002E008C8121F08C1002AFAD17047704752
:100F9000002001E001C1121F002AFBD17047FFF7BA
:100FA00019FBFFF7ACFFFFF739FFFFF721FFFFF752
:100FB0006DFFFEE7010202030405060708090A0B9C
:100FC0000C0D0E0F101000000000000000000102C8
:100FD0000304060708090000F80F000800000020BD
:100FE00010000000800F000808100008100000200A
:100FF000A0040000900F0008010000001000000095
:081000000000000000127A005C
:04000005080000ED02
:00000001FF
