:020000040800F2
:100000001805002001010008CB140008FB100008AF
:10001000C91400086D010008CF1600080000000098
:100020000000000000000000000000006916000849
:10003000A701000800000000CD1400086B1600089E
:100040001B0100081B0100081B0100081B01000820
:100050001B0100081B0100081B0100081B01000810
:100060001B0100081B0100081B0100081B01000800
:100070001B010008710100081B0100081B0100089A
:100080001B0100081B0100081B0100081B010008E0
:100090001B0100081B0100081B0100081B010008D0
:1000A0001B0100081B0100081B0100081B010008C0
:1000B0001B0100081B0100081B0100081B010008B0
:1000C0001B0100081B0100081B010008D1140008D7
:1000D0001B0100081B0100081B0100081B01000890
:1000E0001B0100081B0100081B010008DFF80CD0F1
:1000F00000F02AF8004800470F17000818050020F4
:100100000648804706480047FEE7FEE7FEE7FEE7B1
:10011000FEE7FEE7FEE7FEE7FEE7FEE7CD16000896
:10012000ED000008D2B201E000F8012B491EFBD21D
:1001300070470022F6E710B513460A4604461946F2
:10014000FFF7F0FF204610BD064C074D06E0E068C3
:1001500040F0010394E8070098471034AC42F6D30E
:10016000FFF7C8FFD4180008F4180008FEE70000E5
:10017000014800F067B800006C00002030B590F82E
:1001800040500124AC40C56B6C60046863604368F8
:10019000102B036803D099600068C26030BD9A607C
:1001A0000068C16030BD704772B6FEE710B590F8C8
:1001B00021100024022903D00421816301243DE0A1
:1001C00001680A6822F00E020A6001680A6822F0DB
:1001D00001020A601A4A0168914201D1012121E01D
:1001E000174A1432914201D110211BE0144A2832DF
:1001F000914201D1891515E0114A3C32914201D159
:1002000089140FE00E4A5032914202D14FF48031EE
:1002100008E00B4A6432914202D14FF4801101E0B0
:100220004FF08071064A083A5160012180F8211090
:10023000002180F82010416B01B18847204610BD95
:10024000080002402DE9F05FC16B0C6801680B6883
:10025000D0F840C0042202FA0CF2494DDFF824A184
:10026000494E4A4FDFF828B1DFF828E122422CD06E
:100270005A072AD50A68920603D40A6822F00402B3
:100280000A600168A94201D1042219E0514501D157
:10029000402215E0B14202D14FF4806210E0B94231
:1002A00002D14FF480420BE0594502D14FF4802235
:1002B00006E0714502D14FF4800201E04FF0806208
:1002C0002F4908394A60C16A3BE04FF0020808FA3A
:1002D0000CF818EA040F4FF000094FF0010235D076
:1002E0005FEA837832D50B689B0605D40B6823F050
:1002F0000A030B6080F821200168A94201D1022283
:1003000019E0514501D1202215E0B14202D14FF44C
:10031000007210E0B94202D14FF400520BE059458F
:1003200002D14FF4003206E0714502D14FF40012C1
:1003300001E04FF00072124908394A6080F82090BD
:10034000816A00291AD0BDE8F05F0847082505FA40
:100350000CF5254212D01B0710D50B6823F00E03B5
:100360000B6090F84010C36B02FA01F15960826390
:1003700080F8212080F82090016BE2E7BDE8F09F33
:10038000080002401C0002403000024044000240CD
:10039000580002406C00024030B528B308C8134929
:1003A00014221944B1FBF2F18900C1631049816341
:1003B000022141771A6843F6F0718A43D0E90014AC
:1003C0002143D0E902452C43214304692143446978
:1003D00021438469214311431960002141630122B3
:1003E00042770177084630BD012030BDF8FFFDBFE0
:1003F0000000024070B5044690F820000025012856
:100400000CD0012084F8200094F821600020012EF7
:1004100006D084F820000225284670BD022070BD59
:10042000022684F82160A0632068066826F0010691
:1004300006602046FFF7A2FEE06A002820680168F7
:1004400002D041F00E0106E021F0040101602068B5
:10045000016841F00A0101602068016841F0010172
:100460000160D9E770B5044600F004F90546601C48
:1004700002D004480078044400F0FCF8401BA0427D
:10048000FAD370BD000000202DE9F84FDFF8B891D5
:100490000024A9F1040B23460F2709F1040AABF14C
:1004A000040EC9E00125A5402A40AA427DD1674E2D
:1004B000D1F804C0ACEB0608B44532D014DCBCF172
:1004C000030F3AD009DCBCF1000F2AD0BCF1010FB8
:1004D0001CD0BCF1020F31D11DE0BCF1110F17D0BF
:1004E000BCF1120F2AD119E0B8F5881F19D006DC2B
:1004F000B8F5803F15D0B8F5801F1FD111E0B8F5D1
:10050000001F0ED0B8F5041F18D10AE0CB6815E023
:10051000CB681B1D12E0CB6808330FE0CB680C33AF
:100520000CE08B682BB1012B4FF0080303D0456121
:1005300004E0042302E0056100E00023FF2A01D863
:10054000064601E000F104064FEA840501D9A5F151
:100550002005D6F8008007FA05FC28EA0C0803FA03
:1005600005F548EA0508C6F800804D68ED0062D53B
:10057000374DAE6946F00106AE61AD6924F0030661
:1005800005F001050095334D06EB050CDCF808502D
:10059000A607360F07FA06F825EA0805DFF8B8803F
:1005A000404503D14FF0000817E044E0DFF8AC808D
:1005B000404502D14FF001080FE0DFF8A48040452C
:1005C00002D14FF0020808E0DFF89880404502D1E0
:1005D0004FF0030801E04FF0040808FA06F848EA73
:1005E0000508CCF808804D68D9F80060ED024D464A
:1005F00001D5164300E096432E604D68DAF800609E
:10060000AD02554601D5164300E096432E604D6875
:10061000DBF80060AD035D4601D5164300E096436C
:100620002E604D68DEF80060ED03754601D5164377
:1006300000E096432E60641C0D682A46E5407FF476
:1006400031AFBDE8F88F0000080401400000111030
:10065000001002400000014000080140000C014071
:1006600000100140001401400AB101617047090403
:10067000FBE7000001488068704700000000002090
:1006800002488168027811448160704700000020B0
:10069000074810B5016841F010010160032000F027
:1006A00075F80F2000F006F800F024F8002010BDC7
:1006B0000020024070B50D4D04464FF47A71287841
:1006C000B1FBF0F00A490968B1FBF0F000F001FD60
:1006D00048B9102C07D200222146501E00F036F8EF
:1006E00000206C6070BD012070BD00000000002083
:1006F0000C0000200C4808B5816941F001018161BE
:10070000816901F001010091C16941F08051C1612D
:10071000C06900F0805000900448416821F0E06119
:1007200041F00071416008BD00100240000001402E
:10073000002809DB00F01F020121914040098000E0
:1007400000F1E020C0F8001170470000F0B40E4B3B
:100750001B680C46C3F30223C3F10705042D00D91F
:100760000425191D072901D2002300E0DB1E012604
:1007700006FA05F1491E214099409E40761E16401A
:100780003143F0BC00F0A4BF0CED00E0064900F0DE
:10079000070208684FF6FF03184040EA0220034AA8
:1007A00010430860704700000CED00E00000FA05FF
:1007B0002DE9F0470F46050061D0434E306800F048
:1007C0000700B84209D2306820F007003843306093
:1007D000306800F00700B84251D128683B4C8107CF
:1007E00012D5400703D5606840F4E0606060287867
:1007F000000703D5606840F4605060606068A968D5
:1008000020F0F000084360602878C00728D06868AE
:10081000012810D02168022810D0890700292EDA7B
:10082000616821F0030101436160FFF723FF804607
:1008300041F288390DE021688903EFE78901EDE78E
:10084000FFF718FFA0EB0801494502D90320BDE8D6
:10085000F0876068696800F00C00B0EB810FEFD1A1
:10086000306800F00700B8420BD9306820F007006C
:1008700038433060306800F00700B84201D00120F2
:10088000E5E72878400705D56068E96820F4E0606E
:10089000084360602878000706D56068296920F45D
:1008A000605040EAC100606000F018F86168084AD2
:1008B000C1F30311515CC84006490860064800684E
:1008C000FFF7F8FE0020C2E70020024000100240BF
:1008D000C21800080C000020040000200E4A5168D5
:1008E0000E4801F00C03042B11D0082B0FD10C483B
:1008F000C1F38343C903C05C0AD55168084AC1F3F8
:100900004041921E515C054A5043B0FBF1F07047E4
:1009100004494843704700000010024000127A006A
:10092000B218000800093D002DE9F84F040070D00E
:100930002078C04DC00749D06868C0F38100012805
:1009400007D06868C0F38100022809D16868C00335
:1009500006D52868800339D560680028E7D035E0DF
:100960006068B0F5803F0BD010B1B0F5A02F11D06A
:10097000286820F480302860286820F4802002E075
:10098000286840F480302860606890B1FFF772FEFC
:1009900006460AE0286840F480202860F0E700BF9F
:1009A000FFF768FE801B642873D828688003F7D59A
:1009B0000CE0FFF75FFE064605E000BFFFF75AFEBA
:1009C000801B6428F0D828688003F7D420789A4EDA
:1009D00080074FF001094FF0000839D5686810F022
:1009E0000C0F07D06868C0F38100022809D168683D
:1009F000C00306D42868800714D52069012808D1CF
:100A000010E02069B0B1C6F80090FFF733FE07464A
:100A100005E00AE1FFF72EFEC01B0228C4D82868B3
:100A20008007F7D52868616920F0F80040EAC10026
:100A300028600DE0C6F80080FFF71CFE074604E0C2
:100A4000FFF718FEC01B022823D828688007F7D4B8
:100A5000207800072CD57948A169D9B1C0F8009059
:100A6000FFF708FE074604E0FFF704FEC01B02285C
:100A70000FD8686A8007F7D571484FF4FA510068BB
:100A8000B0FBF1F0009000BF0098411E0091FAD237
:100A90000EE080E0C0F80080FFF7ECFD074604E0C0
:100AA000FFF7E8FDC01B022875D8686A8007F7D4F5
:100AB0002078400760D5E8690027C00008D4E869BD
:100AC00040F08050E861E869012700F08050009014
:100AD0005C480168C90513D40168834641F48071FC
:100AE0000160FFF7C7FD824606E000BFFFF7C2FDC9
:100AF000A0EB0A0064284ED8DBF80000C005F5D54D
:100B0000E06801280AD008B1052813D0286A20F02F
:100B100001002862286A20F0040002E0286A40F000
:100B200001002862E06841F2883B98B1FFF7A2FD1E
:100B300082460BE0286A40F004002862EEE700BF1E
:100B4000FFF798FDA0EB0A0159455AD8286A80079B
:100B5000F6D50CE0FFF78EFD824605E0FFF78AFD33
:100B6000A0EB0A0159454CD8286A8007F6D41FB17A
:100B7000E86920F08050E861E06988B36968C1F3F2
:100B80008101022944D00228C6F8608004D0FFF712
:100B900071FD044638E034E0FFF76CFD074604E0E1
:100BA000FFF768FDC01B02282BD828688001F7D406
:100BB000206AB0F5803F05D16868A16820F4003054
:100BC00008436860D4E908010843696821F4741196
:100BD00008436860C6F86090FFF74CFD044606E0E5
:100BE00025E000BFFFF746FD001B022809D8286852
:100BF0008001F7D51BE000BFFFF73CFD001B02287A
:100C000002D90320BDE8F88F28688001F4D40EE0F3
:100C10000128F7D06868226A00F48031914204D13B
:100C2000616A00F47010884201D00120EAE70020D8
:100C3000E8E7000000100240000042428004424207
:100C40000C000020007000407047000038B50446DA
:100C5000006842688168C9434B0606D5CB0704D1BA
:100C6000D3435B0601D4216C05E08B0708D4D34342
:100C70001B0605D4616C01B02046BDE83040084732
:100C80008B0601D54B0646D4D3439B0643D44B0673
:100C90000AD494F85130032B3ED0636D43F0040323
:100CA0006365C36883680093890609D4616D41F068
:100CB0000101616581680091016821F040010160D6
:100CC000606D002827D02068416821F0E001416074
:100CD000012084F85100900722D02068416821F05B
:100CE00003014160104DE06C40B14563E06CFFF7DB
:100CF0005DFA18B1606D40F040006065A06C00289E
:100D000009D04563A06CFFF751FA002803D0606D4D
:100D100040F04000606538BDC1688068009038BD13
:100D20002046FFF791FF38BDDD14000870B50400C0
:100D300009D0606A002540B125616561A56294F81B
:100D4000510040B10CE0012070BD6068B0F5827FB9
:100D5000F4D0E561F2E784F85050204600F040F806
:100D6000022084F851002068016821F040010160F0
:100D7000A088218900F4827001F404410843A1890C
:100D800001F400610843217C01F002010843217D48
:100D900001F001010843218B01F400710843217F18
:100DA00001F03801084394F8201001F08001084355
:100DB000218D01F40051084321680860A0690421D5
:100DC00001EA1040216848602068C16921F400618F
:100DD000C1616565012084F85100002070BD0000EC
:100DE00070B586B0002506460095019502950395DD
:100DF00000681E49884236D11D49886940F48050F8
:100E00008861886900F480500490886940F004008B
:100E100088618869694600F004000490A020009071
:100E200002200190032003901248FFF72DFB134C82
:100E3000114820601020C4E901058020C4E90305A1
:100E40006561A5612046E561FFF7A6FA08B1FFF7E5
:100E5000ABF9B4640022114623206662FFF776FCEA
:100E60002320FFF765FC06B070BD00000030014094
:100E70000010024000080140300002406C000020D9
:100E80002DE9F84F984616468A460446FFF7F2FBCE
:100E9000814694F8510001281ED1BAF1000F73D099
:100EA000002E71D094F85000012815D0012784F845
:100EB0005070032084F8510000256565C4F830A007
:100EC000A686E686A563A587E58765642564A06890
:100ED000B0F5004F03D00CE00220BDE8F88F206889
:100EE000016821F0400101602068016841F48041FF
:100EF000016020680168490603D4016841F040019F
:100F00000160E068B0F5006F606803D048B3012E5F
:100F100027D047E008B1012E1FD1206B216800883F
:100F2000C86006E020688168890709D5216B0988B7
:100F3000C160206B801C2063E08E401EE0860CE0C8
:100F4000FFF798FBA0EB0901414503D3B8F1FF3F40
:100F500003D035E0B8F1000F32D0E08E0028E1D1A7
:100F600023E0206B21680078087306E02068816820
:100F700089070AD5216B09780173206B401C206317
:100F8000E08E401EE0860DE02BE0FFF773FBA0EB48
:100F90000901414503D3B8F1FF3F03D010E0B8F198
:100FA000000F0DD0E08E0028E0D14A464146204691
:100FB00000F0E4FA08B120206065A06830B109E0D3
:100FC00084F8517084F85050032086E72068C16887
:100FD0008068009084F8517004F8505F60680028C1
:100FE000F3D0012079E7000070B5044690F8510075
:100FF00001281CD1C9B1C2B194F85000012816D003
:10100000012084F85000032084F851000025656514
:101010002163A286E286A56365642564A587E587CA
:10102000A068B0F5004F04D00DE0012070BD022093
:1010300070BD2068016821F04001016020680168EE
:1010400041F480410160A16C1748C862A16C174847
:101050008862A16C16480863A06C4563E38E226821
:10106000216B0C32A06CFFF7C5F930B1606D40F018
:101070001000606584F85050D7E720680168490681
:1010800003D4016841F04001016084F850502068A9
:10109000416841F0200141602068416841F002014F
:1010A0004160002070BD00000F15000819150008F0
:1010B000ED14000810B5012291020348FFF7D4FA9D
:1010C00002490120087010BD000C014010000020F2
:1010D000704710B5401EB0F1807F01D3012010BDD4
:1010E0004FF0E02460610F21601700F0F1FA00205A
:1010F000A06107202061002010BDFEE72DE9F0412E
:1011000006461C4617460D462A2000F04DF930468B
:1011100000F05EF9384600F05BF92B2000F044F94E
:101120001435A8B200F054F91434A0B200F050F90C
:10113000BDE8F0412C2000F037B9000003480178E9
:101140000029FCD000210170704700001000002031
:101150002DE9F0411E46144688460746069DFFF7D6
:10116000CDFFA6EB0800E41B401C641C4443002098
:1011700015492A0A5FFA85F301F8102001EB4005B2
:10118000401CC0B26B703228F6D3DFF840804FF4B9
:1011900080674FF6FF76002C13D0322C01D9322510
:1011A00000E02546002239464046FFF75DFA06EA90
:1011B000450205490648FFF717FFFFF7BFFF641B0D
:1011C000E9E7BDE8F0810000B0000020000C01401C
:1011D0001400002010B5664C002201212046FFF7C4
:1011E00043FA6420FFF73EF9012211462046FFF73B
:1011F0003BFA6420FFF736F90122D1022046FFF7BF
:1012000033FA6420FFF72EF9112000F0CDF8782092
:10121000FFF728F9362000F0C7F8002000F0AAF800
:101220003A2000F0C1F8052000F0A4F8B22000F048
:10123000BBF80C2000F09EF80C2000F09BF800207A
:1012400000F098F8332000F095F8332000F092F881
:10125000B72000F0A9F8352000F08CF8BB2000F092
:10126000A3F8322000F086F8C22000F09DF801209B
:1012700000F080F8C32000F097F8152000F07AF80D
:10128000C42000F091F8202000F074F8C62000F08F
:101290008BF80F2000F06EF8D02000F085F8A42025
:1012A00000F068F8A12000F065F8E02000F07CF87C
:1012B000D02000F05FF8082000F05CF80E2000F06D
:1012C00059F8092000F056F8092000F053F80520DD
:1012D00000F050F8312000F04DF8332000F04AF8CB
:1012E000482000F047F8172000F044F8142000F0E0
:1012F00041F8152000F03EF8312000F03BF8342092
:1013000000F038F8E12000F04FF8D02000F032F87B
:10131000082000F02FF80E2000F02CF8092000F033
:1013200029F8092000F026F8152000F023F83120D4
:1013300000F020F8332000F01DF8482000F01AF8E3
:10134000172000F017F8142000F014F8152000F012
:1013500011F8312000F00EF8342000F00BF82120B5
:1013600000F022F8BDE81040292000F01DB8000070
:10137000000C014031B50A4D4FF480640022214633
:101380002846FFF771F94FF47A7301226946054840
:10139000FFF776FD012221462846FFF765F938BDA3
:1013A000000C01401400002070B5084C05460022D6
:1013B00002212046FFF758F92846FFF7DBFF2046B9
:1013C000BDE8704001220221FFF74EB9000C014038
:1013D00010B50446000AFFF7CDFFE0B2BDE81040AB
:1013E000FFF7C8BF094808B5416941F001014161F3
:1013F0004069002200F00100009011460D20FFF727
:10140000A5F9BDE808400D20FFF792B90010024091
:1014100070B586B000241848009401940294039497
:10142000816941F020018161816901F0200104910D
:10143000816941F004018161816901F00401049135
:10144000816941F00801816180690C4E00F008005B
:1014500040F603450490012229463046FFF704F97F
:1014600001200095CDE90104032003906946304630
:10147000FFF70AF806B070BD00100240000C0140F2
:10148000104810B50E4901604FF48271416000218F
:101490008160C1604FF400720161C0E90512082249
:1014A000C0E90721416281620A21C162FFF73EFC67
:1014B000002803D0BDE81040FEF776BE10BD000046
:1014C0000030014014000020FEE7FEE770470000F6
:1014D0000148FFF7BBBB00001400002010B5406AB4
:1014E0000021C187C186FFF7AFFB10BD10B5406A70
:1014F00001684A6822F003024A60416D41F0100120
:101500004165012180F85110FFF79EFB10BD10B519
:10151000406AFFF7DDFD10BD38B50546446AFFF7A8
:10152000A9F8024628680068800623D4206841682C
:1015300021F0200141602068416821F002014160F2
:101540006421204600F01AF818B1606D40F02000C8
:101550006065A068002118B92068C26880680090A2
:10156000E186012084F85100606D18B12046FFF734
:101570006BFB38BD2046FFF79DFD38BDF8B515461D
:101580000E460B46009204460122022100F010F89C
:1015900040B93346002280212046009500F008F82B
:1015A000002804D0606D40F0200060650320F8BD85
:1015B0002DE9F8431E46914688460446089DFFF7EC
:1015C00059F8401B351AFFF755F8074625480068BB
:1015D000C0F3CB30684338E0701C37D0FFF74AF8CF
:1015E000C01BA84203D215B1009860B32CE020685C
:1015F000416821F0E00141606068B0F5827F0BD165
:10160000A068B0F5004F02D0B0F5806F04D120681B
:10161000016821F040010160A06AB0F5005F09D1C6
:101620002068016821F4005101602068016841F4DC
:1016300000510160012084F85100002084F850001E
:101640000320BDE8F8830025401E009020688168D3
:1016500038EA010004D000214945BDD10020F0E75F
:101660000121F9E70C0000207047FFF709B830B5F9
:101670008FB028216846FEF75CFD14210AA8FEF70A
:1016800058FD01210804CDE9001000240294022530
:101690000491CDE907504FF4E01009906846FFF738
:1016A00043F908B172B6FEE70F20CDE90A054FF401
:1016B0008060CDE90C4002210AA80E94FFF778F86B
:1016C000002801D072B6FEE70FB030BD7047FEE7CC
:1016D0000907090E002804DB00F1E02080F800145F
:1016E000704700F00F0000F1E02080F8141D7047F3
:1016F00002E008C8121F08C1002AFAD170477047DB
:10170000002001E001C1121F002AFBD1704708B57B
:10171000FEF7BEFFFFF7ABFFFFF77AFEFFF762FEB3
:10172000FFF7AEFEFFF756FD48F2304640F21717BE
:1017300000213B46EF2208460096FFF709FD4FF6D1
:10174000FF74A02350211A4608460094FFF700FDBD
:10175000A0464FF01F094FF61F044FF6E07540F208
:10176000FF7A4FF4784B00213B46EF220846CDF834
:101770000080FFF7EDFC00203B46EF220146009081
:10178000FFF7E6FC00213B46EF220846CDF800902B
:10179000FFF7DEFC00213B46EF2208460094FFF7EE
:1017A000D7FC00213B46EF2208460095FFF7D0FC0E
:1017B00000213B46EF220846CDF800A0FFF7C8FC09
:1017C00000213B46EF220846CDF800B0FFF7C0FCF1
:1017D00000213B46EF2208460094FFF7B9FC4FF486
:1017E000FC60002100903B46EF220846FFF7B0FC6A
:1017F00047F6FF70002100903B46EF220846FFF7B6
:10180000A7FC00213B46EF2208460095FFF7A0FC0D
:101810004BF64040002100903B46EF220846FFF780
:1018200097FC4FF60740002100903B46EF22084608
:10183000FFF78EFC00213B46EF2208460096FFF79B
:1018400087FC40F2CF10002100903B46EF22084673
:10185000FFF77EFC47F67C50002100903B46EF22CC
:101860000846FFF775FC45F25840002100903B46C2
:10187000EF220846FFF76CFC48F21F400021009061
:101880003B46EF220846FFF763FC4AF25160002115
:1018900000903B46EF220846FFF75AFC42F6123012
:1018A000002100903B46EF220846FFF751FC5AE723
:1018B000010202030405060708090A0B0C0D0E0FAE
:1018C00010100000000000000000010203040607E1
:1018D00008090000F41800080000002014000000AF
:1018E000F016000808190008140000200405000084
:1018F00000170008010000001000000000000000B8
:0819000000127A000000000053
:04000005080000ED02
:00000001FF
